{
  "contractName": "MyERC1155Token",
  "abi": [
    {
      "inputs": [],
      "stateMutability": "nonpayable",
      "type": "constructor"
    },
    {
      "anonymous": false,
      "inputs": [
        {
          "indexed": true,
          "internalType": "address",
          "name": "account",
          "type": "address"
        },
        {
          "indexed": true,
          "internalType": "address",
          "name": "operator",
          "type": "address"
        },
        {
          "indexed": false,
          "internalType": "bool",
          "name": "approved",
          "type": "bool"
        }
      ],
      "name": "ApprovalForAll",
      "type": "event"
    },
    {
      "anonymous": false,
      "inputs": [
        {
          "indexed": true,
          "internalType": "address",
          "name": "previousOwner",
          "type": "address"
        },
        {
          "indexed": true,
          "internalType": "address",
          "name": "newOwner",
          "type": "address"
        }
      ],
      "name": "OwnershipTransferred",
      "type": "event"
    },
    {
      "anonymous": false,
      "inputs": [
        {
          "indexed": true,
          "internalType": "address",
          "name": "operator",
          "type": "address"
        },
        {
          "indexed": true,
          "internalType": "address",
          "name": "from",
          "type": "address"
        },
        {
          "indexed": true,
          "internalType": "address",
          "name": "to",
          "type": "address"
        },
        {
          "indexed": false,
          "internalType": "uint256[]",
          "name": "ids",
          "type": "uint256[]"
        },
        {
          "indexed": false,
          "internalType": "uint256[]",
          "name": "values",
          "type": "uint256[]"
        }
      ],
      "name": "TransferBatch",
      "type": "event"
    },
    {
      "anonymous": false,
      "inputs": [
        {
          "indexed": true,
          "internalType": "address",
          "name": "operator",
          "type": "address"
        },
        {
          "indexed": true,
          "internalType": "address",
          "name": "from",
          "type": "address"
        },
        {
          "indexed": true,
          "internalType": "address",
          "name": "to",
          "type": "address"
        },
        {
          "indexed": false,
          "internalType": "uint256",
          "name": "id",
          "type": "uint256"
        },
        {
          "indexed": false,
          "internalType": "uint256",
          "name": "value",
          "type": "uint256"
        }
      ],
      "name": "TransferSingle",
      "type": "event"
    },
    {
      "anonymous": false,
      "inputs": [
        {
          "indexed": false,
          "internalType": "string",
          "name": "value",
          "type": "string"
        },
        {
          "indexed": true,
          "internalType": "uint256",
          "name": "id",
          "type": "uint256"
        }
      ],
      "name": "URI",
      "type": "event"
    },
    {
      "inputs": [
        {
          "internalType": "address",
          "name": "account",
          "type": "address"
        },
        {
          "internalType": "uint256",
          "name": "id",
          "type": "uint256"
        }
      ],
      "name": "balanceOf",
      "outputs": [
        {
          "internalType": "uint256",
          "name": "",
          "type": "uint256"
        }
      ],
      "stateMutability": "view",
      "type": "function"
    },
    {
      "inputs": [
        {
          "internalType": "address[]",
          "name": "accounts",
          "type": "address[]"
        },
        {
          "internalType": "uint256[]",
          "name": "ids",
          "type": "uint256[]"
        }
      ],
      "name": "balanceOfBatch",
      "outputs": [
        {
          "internalType": "uint256[]",
          "name": "",
          "type": "uint256[]"
        }
      ],
      "stateMutability": "view",
      "type": "function"
    },
    {
      "inputs": [
        {
          "internalType": "address",
          "name": "account",
          "type": "address"
        },
        {
          "internalType": "address",
          "name": "operator",
          "type": "address"
        }
      ],
      "name": "isApprovedForAll",
      "outputs": [
        {
          "internalType": "bool",
          "name": "",
          "type": "bool"
        }
      ],
      "stateMutability": "view",
      "type": "function"
    },
    {
      "inputs": [],
      "name": "owner",
      "outputs": [
        {
          "internalType": "address",
          "name": "",
          "type": "address"
        }
      ],
      "stateMutability": "view",
      "type": "function"
    },
    {
      "inputs": [],
      "name": "renounceOwnership",
      "outputs": [],
      "stateMutability": "nonpayable",
      "type": "function"
    },
    {
      "inputs": [
        {
          "internalType": "address",
          "name": "from",
          "type": "address"
        },
        {
          "internalType": "address",
          "name": "to",
          "type": "address"
        },
        {
          "internalType": "uint256[]",
          "name": "ids",
          "type": "uint256[]"
        },
        {
          "internalType": "uint256[]",
          "name": "amounts",
          "type": "uint256[]"
        },
        {
          "internalType": "bytes",
          "name": "data",
          "type": "bytes"
        }
      ],
      "name": "safeBatchTransferFrom",
      "outputs": [],
      "stateMutability": "nonpayable",
      "type": "function"
    },
    {
      "inputs": [
        {
          "internalType": "address",
          "name": "from",
          "type": "address"
        },
        {
          "internalType": "address",
          "name": "to",
          "type": "address"
        },
        {
          "internalType": "uint256",
          "name": "id",
          "type": "uint256"
        },
        {
          "internalType": "uint256",
          "name": "amount",
          "type": "uint256"
        },
        {
          "internalType": "bytes",
          "name": "data",
          "type": "bytes"
        }
      ],
      "name": "safeTransferFrom",
      "outputs": [],
      "stateMutability": "nonpayable",
      "type": "function"
    },
    {
      "inputs": [
        {
          "internalType": "address",
          "name": "operator",
          "type": "address"
        },
        {
          "internalType": "bool",
          "name": "approved",
          "type": "bool"
        }
      ],
      "name": "setApprovalForAll",
      "outputs": [],
      "stateMutability": "nonpayable",
      "type": "function"
    },
    {
      "inputs": [
        {
          "internalType": "bytes4",
          "name": "interfaceId",
          "type": "bytes4"
        }
      ],
      "name": "supportsInterface",
      "outputs": [
        {
          "internalType": "bool",
          "name": "",
          "type": "bool"
        }
      ],
      "stateMutability": "view",
      "type": "function"
    },
    {
      "inputs": [
        {
          "internalType": "address",
          "name": "newOwner",
          "type": "address"
        }
      ],
      "name": "transferOwnership",
      "outputs": [],
      "stateMutability": "nonpayable",
      "type": "function"
    },
    {
      "inputs": [
        {
          "internalType": "uint256",
          "name": "",
          "type": "uint256"
        }
      ],
      "name": "uri",
      "outputs": [
        {
          "internalType": "string",
          "name": "",
          "type": "string"
        }
      ],
      "stateMutability": "view",
      "type": "function"
    },
    {
      "inputs": [
        {
          "internalType": "address",
          "name": "to",
          "type": "address"
        },
        {
          "internalType": "uint256",
          "name": "id",
          "type": "uint256"
        },
        {
          "internalType": "uint256",
          "name": "amount",
          "type": "uint256"
        },
        {
          "internalType": "bytes",
          "name": "data",
          "type": "bytes"
        }
      ],
      "name": "mint",
      "outputs": [],
      "stateMutability": "nonpayable",
      "type": "function"
    },
    {
      "inputs": [
        {
          "internalType": "address",
          "name": "from",
          "type": "address"
        },
        {
          "internalType": "uint256",
          "name": "id",
          "type": "uint256"
        },
        {
          "internalType": "uint256",
          "name": "amount",
          "type": "uint256"
        }
      ],
      "name": "burn",
      "outputs": [],
      "stateMutability": "nonpayable",
      "type": "function"
    }
  ],
  "bytecode": "0x608060405234801562000010575f80fd5b5060405180606001604052806024815260200162003dae602491396200003c816200008760201b60201c565b506200005d620000516200009c60201b60201c565b620000a360201b60201c565b62000081336001606460405180602001604052805f8152506200016660201b60201c565b62000ef8565b806002908162000098919062000848565b5050565b5f33905090565b5f60035f9054906101000a900473ffffffffffffffffffffffffffffffffffffffff1690508160035f6101000a81548173ffffffffffffffffffffffffffffffffffffffff021916908373ffffffffffffffffffffffffffffffffffffffff1602179055508173ffffffffffffffffffffffffffffffffffffffff168173ffffffffffffffffffffffffffffffffffffffff167f8be0079c531659141344cd1fd0a4f28419497f9722a3daafe3b4186f6b6457e060405160405180910390a35050565b5f73ffffffffffffffffffffffffffffffffffffffff168473ffffffffffffffffffffffffffffffffffffffff1603620001d7576040517f08c379a0000000000000000000000000000000000000000000000000000000008152600401620001ce90620009b0565b60405180910390fd5b5f620001e86200009c60201b60201c565b90505f620001fc856200034060201b60201c565b90505f62000210856200034060201b60201c565b905062000228835f89858589620003bf60201b60201c565b845f808881526020019081526020015f205f8973ffffffffffffffffffffffffffffffffffffffff1673ffffffffffffffffffffffffffffffffffffffff1681526020019081526020015f205f828254620002849190620009fd565b925050819055508673ffffffffffffffffffffffffffffffffffffffff165f73ffffffffffffffffffffffffffffffffffffffff168473ffffffffffffffffffffffffffffffffffffffff167fc3d58168c5ae7397731d063d5bbf3d657854427343f4c083240f7aacaa2d0f6289896040516200030392919062000a48565b60405180910390a462000321835f89858589620003c760201b60201c565b62000337835f89898989620003cf60201b60201c565b50505050505050565b60605f600167ffffffffffffffff811115620003615762000360620005ee565b5b604051908082528060200260200182016040528015620003905781602001602082028036833780820191505090505b50905082815f81518110620003aa57620003a962000a73565b5b60200260200101818152505080915050919050565b505050505050565b505050505050565b620003f68473ffffffffffffffffffffffffffffffffffffffff16620005c260201b60201c565b15620005ba578373ffffffffffffffffffffffffffffffffffffffff1663f23a6e6187878686866040518663ffffffff1660e01b81526004016200043f95949392919062000b77565b6020604051808303815f875af19250505080156200047d57506040513d601f19601f820116820180604052508101906200047a919062000c40565b60015b6200052e576200048c62000c7c565b806308c379a003620004ef5750620004a362000cd4565b80620004b05750620004f1565b806040517f08c379a0000000000000000000000000000000000000000000000000000000008152600401620004e6919062000dae565b60405180910390fd5b505b6040517f08c379a0000000000000000000000000000000000000000000000000000000008152600401620005259062000e44565b60405180910390fd5b63f23a6e6160e01b7bffffffffffffffffffffffffffffffffffffffffffffffffffffffff1916817bffffffffffffffffffffffffffffffffffffffffffffffffffffffff191614620005b8576040517f08c379a0000000000000000000000000000000000000000000000000000000008152600401620005af9062000ed8565b60405180910390fd5b505b505050505050565b5f808273ffffffffffffffffffffffffffffffffffffffff163b119050919050565b5f81519050919050565b7f4e487b71000000000000000000000000000000000000000000000000000000005f52604160045260245ffd5b7f4e487b71000000000000000000000000000000000000000000000000000000005f52602260045260245ffd5b5f60028204905060018216806200066057607f821691505b6020821081036200067657620006756200061b565b5b50919050565b5f819050815f5260205f209050919050565b5f6020601f8301049050919050565b5f82821b905092915050565b5f60088302620006da7fffffffffffffffffffffffffffffffffffffffffffffffffffffffffffffffff826200069d565b620006e686836200069d565b95508019841693508086168417925050509392505050565b5f819050919050565b5f819050919050565b5f620007306200072a6200072484620006fe565b62000707565b620006fe565b9050919050565b5f819050919050565b6200074b8362000710565b620007636200075a8262000737565b848454620006a9565b825550505050565b5f90565b620007796200076b565b6200078681848462000740565b505050565b5b81811015620007ad57620007a15f826200076f565b6001810190506200078c565b5050565b601f821115620007fc57620007c6816200067c565b620007d1846200068e565b81016020851015620007e1578190505b620007f9620007f0856200068e565b8301826200078b565b50505b505050565b5f82821c905092915050565b5f6200081e5f198460080262000801565b1980831691505092915050565b5f6200083883836200080d565b9150826002028217905092915050565b6200085382620005e4565b67ffffffffffffffff8111156200086f576200086e620005ee565b5b6200087b825462000648565b62000888828285620007b1565b5f60209050601f831160018114620008be575f8415620008a9578287015190505b620008b585826200082b565b86555062000924565b601f198416620008ce866200067c565b5f5b82811015620008f757848901518255600182019150602085019450602081019050620008d0565b8683101562000917578489015162000913601f8916826200080d565b8355505b6001600288020188555050505b505050505050565b5f82825260208201905092915050565b7f455243313135353a206d696e7420746f20746865207a65726f206164647265735f8201527f7300000000000000000000000000000000000000000000000000000000000000602082015250565b5f620009986021836200092c565b9150620009a5826200093c565b604082019050919050565b5f6020820190508181035f830152620009c9816200098a565b9050919050565b7f4e487b71000000000000000000000000000000000000000000000000000000005f52601160045260245ffd5b5f62000a0982620006fe565b915062000a1683620006fe565b925082820190508082111562000a315762000a30620009d0565b5b92915050565b62000a4281620006fe565b82525050565b5f60408201905062000a5d5f83018562000a37565b62000a6c602083018462000a37565b9392505050565b7f4e487b71000000000000000000000000000000000000000000000000000000005f52603260045260245ffd5b5f73ffffffffffffffffffffffffffffffffffffffff82169050919050565b5f62000acb8262000aa0565b9050919050565b62000add8162000abf565b82525050565b5f81519050919050565b5f82825260208201905092915050565b5f5b8381101562000b1c57808201518184015260208101905062000aff565b5f8484015250505050565b5f601f19601f8301169050919050565b5f62000b438262000ae3565b62000b4f818562000aed565b935062000b6181856020860162000afd565b62000b6c8162000b27565b840191505092915050565b5f60a08201905062000b8c5f83018862000ad2565b62000b9b602083018762000ad2565b62000baa604083018662000a37565b62000bb9606083018562000a37565b818103608083015262000bcd818462000b37565b90509695505050505050565b5f604051905090565b5f80fd5b5f7fffffffff0000000000000000000000000000000000000000000000000000000082169050919050565b62000c1c8162000be6565b811462000c27575f80fd5b50565b5f8151905062000c3a8162000c11565b92915050565b5f6020828403121562000c585762000c5762000be2565b5b5f62000c678482850162000c2a565b91505092915050565b5f8160e01c9050919050565b5f60033d111562000c9b5760045f803e62000c985f5162000c70565b90505b90565b62000ca98262000b27565b810181811067ffffffffffffffff8211171562000ccb5762000cca620005ee565b5b80604052505050565b5f60443d1062000d6b5762000ce862000bd9565b60043d036004823e80513d602482011167ffffffffffffffff8211171562000d1257505062000d6b565b808201805167ffffffffffffffff81111562000d32575050505062000d6b565b80602083010160043d03850181111562000d5157505050505062000d6b565b62000d628260200185018662000c9e565b82955050505050505b90565b5f62000d7a82620005e4565b62000d8681856200092c565b935062000d9881856020860162000afd565b62000da38162000b27565b840191505092915050565b5f6020820190508181035f83015262000dc8818462000d6e565b905092915050565b7f455243313135353a207472616e7366657220746f206e6f6e2d455243313135355f8201527f526563656976657220696d706c656d656e746572000000000000000000000000602082015250565b5f62000e2c6034836200092c565b915062000e398262000dd0565b604082019050919050565b5f6020820190508181035f83015262000e5d8162000e1e565b9050919050565b7f455243313135353a204552433131353552656365697665722072656a656374655f8201527f6420746f6b656e73000000000000000000000000000000000000000000000000602082015250565b5f62000ec06028836200092c565b915062000ecd8262000e64565b604082019050919050565b5f6020820190508181035f83015262000ef18162000eb2565b9050919050565b612ea88062000f065f395ff3fe608060405234801561000f575f80fd5b50600436106100cc575f3560e01c8063731133e91161008a578063e985e9c511610064578063e985e9c51461020c578063f242432a1461023c578063f2fde38b14610258578063f5298aca14610274576100cc565b8063731133e9146101b65780638da5cb5b146101d2578063a22cb465146101f0576100cc565b8062fdd58e146100d057806301ffc9a7146101005780630e89341c146101305780632eb2c2d6146101605780634e1273f41461017c578063715018a6146101ac575b5f80fd5b6100ea60048036038101906100e59190611a2c565b610290565b6040516100f79190611a79565b60405180910390f35b61011a60048036038101906101159190611ae7565b610353565b6040516101279190611b2c565b60405180910390f35b61014a60048036038101906101459190611b45565b610434565b6040516101579190611bfa565b60405180910390f35b61017a60048036038101906101759190611e0a565b6104c6565b005b61019660048036038101906101919190611f95565b610567565b6040516101a391906120c2565b60405180910390f35b6101b461067e565b005b6101d060048036038101906101cb91906120e2565b610691565b005b6101da6106ab565b6040516101e79190612171565b60405180910390f35b61020a600480360381019061020591906121b4565b6106d3565b005b610226600480360381019061022191906121f2565b6106e9565b6040516102339190611b2c565b60405180910390f35b61025660048036038101906102519190612230565b610777565b005b610272600480360381019061026d91906122c3565b610818565b005b61028e600480360381019061028991906122ee565b61089a565b005b5f8073ffffffffffffffffffffffffffffffffffffffff168373ffffffffffffffffffffffffffffffffffffffff16036102ff576040517f08c379a00000000000000000000000000000000000000000000000000000000081526004016102f6906123ae565b60405180910390fd5b5f808381526020019081526020015f205f8473ffffffffffffffffffffffffffffffffffffffff1673ffffffffffffffffffffffffffffffffffffffff1681526020019081526020015f2054905092915050565b5f7fd9b67a26000000000000000000000000000000000000000000000000000000007bffffffffffffffffffffffffffffffffffffffffffffffffffffffff1916827bffffffffffffffffffffffffffffffffffffffffffffffffffffffff1916148061041d57507f0e89341c000000000000000000000000000000000000000000000000000000007bffffffffffffffffffffffffffffffffffffffffffffffffffffffff1916827bffffffffffffffffffffffffffffffffffffffffffffffffffffffff1916145b8061042d575061042c826108b2565b5b9050919050565b606060028054610443906123f9565b80601f016020809104026020016040519081016040528092919081815260200182805461046f906123f9565b80156104ba5780601f10610491576101008083540402835291602001916104ba565b820191905f5260205f20905b81548152906001019060200180831161049d57829003601f168201915b50505050509050919050565b6104ce61091b565b73ffffffffffffffffffffffffffffffffffffffff168573ffffffffffffffffffffffffffffffffffffffff16148061051457506105138561050e61091b565b6106e9565b5b610553576040517f08c379a000000000000000000000000000000000000000000000000000000000815260040161054a90612499565b60405180910390fd5b6105608585858585610922565b5050505050565b606081518351146105ad576040517f08c379a00000000000000000000000000000000000000000000000000000000081526004016105a490612527565b60405180910390fd5b5f835167ffffffffffffffff8111156105c9576105c8611c1e565b5b6040519080825280602002602001820160405280156105f75781602001602082028036833780820191505090505b5090505f5b84518110156106735761064385828151811061061b5761061a612545565b5b602002602001015185838151811061063657610635612545565b5b6020026020010151610290565b82828151811061065657610655612545565b5b6020026020010181815250508061066c9061259f565b90506105fc565b508091505092915050565b610686610c30565b61068f5f610cae565b565b610699610c30565b6106a584848484610d71565b50505050565b5f60035f9054906101000a900473ffffffffffffffffffffffffffffffffffffffff16905090565b6106e56106de61091b565b8383610f14565b5050565b5f60015f8473ffffffffffffffffffffffffffffffffffffffff1673ffffffffffffffffffffffffffffffffffffffff1681526020019081526020015f205f8373ffffffffffffffffffffffffffffffffffffffff1673ffffffffffffffffffffffffffffffffffffffff1681526020019081526020015f205f9054906101000a900460ff16905092915050565b61077f61091b565b73ffffffffffffffffffffffffffffffffffffffff168573ffffffffffffffffffffffffffffffffffffffff1614806107c557506107c4856107bf61091b565b6106e9565b5b610804576040517f08c379a00000000000000000000000000000000000000000000000000000000081526004016107fb90612499565b60405180910390fd5b610811858585858561107b565b5050505050565b610820610c30565b5f73ffffffffffffffffffffffffffffffffffffffff168173ffffffffffffffffffffffffffffffffffffffff160361088e576040517f08c379a000000000000000000000000000000000000000000000000000000000815260040161088590612656565b60405180910390fd5b61089781610cae565b50565b6108a2610c30565b6108ad838383611304565b505050565b5f7f01ffc9a7000000000000000000000000000000000000000000000000000000007bffffffffffffffffffffffffffffffffffffffffffffffffffffffff1916827bffffffffffffffffffffffffffffffffffffffffffffffffffffffff1916149050919050565b5f33905090565b8151835114610966576040517f08c379a000000000000000000000000000000000000000000000000000000000815260040161095d906126e4565b60405180910390fd5b5f73ffffffffffffffffffffffffffffffffffffffff168473ffffffffffffffffffffffffffffffffffffffff16036109d4576040517f08c379a00000000000000000000000000000000000000000000000000000000081526004016109cb90612772565b60405180910390fd5b5f6109dd61091b565b90506109ed818787878787611538565b5f5b8451811015610b8d575f858281518110610a0c57610a0b612545565b5b602002602001015190505f858381518110610a2a57610a29612545565b5b602002602001015190505f805f8481526020019081526020015f205f8b73ffffffffffffffffffffffffffffffffffffffff1673ffffffffffffffffffffffffffffffffffffffff1681526020019081526020015f2054905081811015610ac6576040517f08c379a0000000000000000000000000000000000000000000000000000000008152600401610abd90612800565b60405180910390fd5b8181035f808581526020019081526020015f205f8c73ffffffffffffffffffffffffffffffffffffffff1673ffffffffffffffffffffffffffffffffffffffff1681526020019081526020015f2081905550815f808581526020019081526020015f205f8b73ffffffffffffffffffffffffffffffffffffffff1673ffffffffffffffffffffffffffffffffffffffff1681526020019081526020015f205f828254610b72919061281e565b9250508190555050505080610b869061259f565b90506109ef565b508473ffffffffffffffffffffffffffffffffffffffff168673ffffffffffffffffffffffffffffffffffffffff168273ffffffffffffffffffffffffffffffffffffffff167f4a39dc06d4c0dbc64b70af90fd698a233a518aa5d07e595d983b8c0526c8f7fb8787604051610c04929190612851565b60405180910390a4610c1a818787878787611540565b610c28818787878787611548565b505050505050565b610c3861091b565b73ffffffffffffffffffffffffffffffffffffffff16610c566106ab565b73ffffffffffffffffffffffffffffffffffffffff1614610cac576040517f08c379a0000000000000000000000000000000000000000000000000000000008152600401610ca3906128d0565b60405180910390fd5b565b5f60035f9054906101000a900473ffffffffffffffffffffffffffffffffffffffff1690508160035f6101000a81548173ffffffffffffffffffffffffffffffffffffffff021916908373ffffffffffffffffffffffffffffffffffffffff1602179055508173ffffffffffffffffffffffffffffffffffffffff168173ffffffffffffffffffffffffffffffffffffffff167f8be0079c531659141344cd1fd0a4f28419497f9722a3daafe3b4186f6b6457e060405160405180910390a35050565b5f73ffffffffffffffffffffffffffffffffffffffff168473ffffffffffffffffffffffffffffffffffffffff1603610ddf576040517f08c379a0000000000000000000000000000000000000000000000000000000008152600401610dd69061295e565b60405180910390fd5b5f610de861091b565b90505f610df48561171e565b90505f610e008561171e565b9050610e10835f89858589611538565b845f808881526020019081526020015f205f8973ffffffffffffffffffffffffffffffffffffffff1673ffffffffffffffffffffffffffffffffffffffff1681526020019081526020015f205f828254610e6a919061281e565b925050819055508673ffffffffffffffffffffffffffffffffffffffff165f73ffffffffffffffffffffffffffffffffffffffff168473ffffffffffffffffffffffffffffffffffffffff167fc3d58168c5ae7397731d063d5bbf3d657854427343f4c083240f7aacaa2d0f628989604051610ee792919061297c565b60405180910390a4610efd835f89858589611540565b610f0b835f89898989611796565b50505050505050565b8173ffffffffffffffffffffffffffffffffffffffff168373ffffffffffffffffffffffffffffffffffffffff1603610f82576040517f08c379a0000000000000000000000000000000000000000000000000000000008152600401610f7990612a13565b60405180910390fd5b8060015f8573ffffffffffffffffffffffffffffffffffffffff1673ffffffffffffffffffffffffffffffffffffffff1681526020019081526020015f205f8473ffffffffffffffffffffffffffffffffffffffff1673ffffffffffffffffffffffffffffffffffffffff1681526020019081526020015f205f6101000a81548160ff0219169083151502179055508173ffffffffffffffffffffffffffffffffffffffff168373ffffffffffffffffffffffffffffffffffffffff167f17307eab39ab6107e8899845ad3d59bd9653f200f220920489ca2b5937696c318360405161106e9190611b2c565b60405180910390a3505050565b5f73ffffffffffffffffffffffffffffffffffffffff168473ffffffffffffffffffffffffffffffffffffffff16036110e9576040517f08c379a00000000000000000000000000000000000000000000000000000000081526004016110e090612772565b60405180910390fd5b5f6110f261091b565b90505f6110fe8561171e565b90505f61110a8561171e565b905061111a838989858589611538565b5f805f8881526020019081526020015f205f8a73ffffffffffffffffffffffffffffffffffffffff1673ffffffffffffffffffffffffffffffffffffffff1681526020019081526020015f20549050858110156111ac576040517f08c379a00000000000000000000000000000000000000000000000000000000081526004016111a390612800565b60405180910390fd5b8581035f808981526020019081526020015f205f8b73ffffffffffffffffffffffffffffffffffffffff1673ffffffffffffffffffffffffffffffffffffffff1681526020019081526020015f2081905550855f808981526020019081526020015f205f8a73ffffffffffffffffffffffffffffffffffffffff1673ffffffffffffffffffffffffffffffffffffffff1681526020019081526020015f205f828254611258919061281e565b925050819055508773ffffffffffffffffffffffffffffffffffffffff168973ffffffffffffffffffffffffffffffffffffffff168573ffffffffffffffffffffffffffffffffffffffff167fc3d58168c5ae7397731d063d5bbf3d657854427343f4c083240f7aacaa2d0f628a8a6040516112d592919061297c565b60405180910390a46112eb848a8a86868a611540565b6112f9848a8a8a8a8a611796565b505050505050505050565b5f73ffffffffffffffffffffffffffffffffffffffff168373ffffffffffffffffffffffffffffffffffffffff1603611372576040517f08c379a000000000000000000000000000000000000000000000000000000000815260040161136990612aa1565b60405180910390fd5b5f61137b61091b565b90505f6113878461171e565b90505f6113938461171e565b90506113b183875f858560405180602001604052805f815250611538565b5f805f8781526020019081526020015f205f8873ffffffffffffffffffffffffffffffffffffffff1673ffffffffffffffffffffffffffffffffffffffff1681526020019081526020015f2054905084811015611443576040517f08c379a000000000000000000000000000000000000000000000000000000000815260040161143a90612b2f565b60405180910390fd5b8481035f808881526020019081526020015f205f8973ffffffffffffffffffffffffffffffffffffffff1673ffffffffffffffffffffffffffffffffffffffff1681526020019081526020015f20819055505f73ffffffffffffffffffffffffffffffffffffffff168773ffffffffffffffffffffffffffffffffffffffff168573ffffffffffffffffffffffffffffffffffffffff167fc3d58168c5ae7397731d063d5bbf3d657854427343f4c083240f7aacaa2d0f62898960405161150b92919061297c565b60405180910390a461152f84885f868660405180602001604052805f815250611540565b50505050505050565b505050505050565b505050505050565b6115678473ffffffffffffffffffffffffffffffffffffffff1661196c565b15611716578373ffffffffffffffffffffffffffffffffffffffff1663bc197c8187878686866040518663ffffffff1660e01b81526004016115ad959493929190612b9f565b6020604051808303815f875af19250505080156115e857506040513d601f19601f820116820180604052508101906115e59190612c19565b60015b61168d576115f4612c50565b806308c379a0036116505750611608612c6f565b806116135750611652565b806040517f08c379a00000000000000000000000000000000000000000000000000000000081526004016116479190611bfa565b60405180910390fd5b505b6040517f08c379a000000000000000000000000000000000000000000000000000000000815260040161168490612d6e565b60405180910390fd5b63bc197c8160e01b7bffffffffffffffffffffffffffffffffffffffffffffffffffffffff1916817bffffffffffffffffffffffffffffffffffffffffffffffffffffffff191614611714576040517f08c379a000000000000000000000000000000000000000000000000000000000815260040161170b90612dfc565b60405180910390fd5b505b505050505050565b60605f600167ffffffffffffffff81111561173c5761173b611c1e565b5b60405190808252806020026020018201604052801561176a5781602001602082028036833780820191505090505b50905082815f8151811061178157611780612545565b5b60200260200101818152505080915050919050565b6117b58473ffffffffffffffffffffffffffffffffffffffff1661196c565b15611964578373ffffffffffffffffffffffffffffffffffffffff1663f23a6e6187878686866040518663ffffffff1660e01b81526004016117fb959493929190612e1a565b6020604051808303815f875af192505050801561183657506040513d601f19601f820116820180604052508101906118339190612c19565b60015b6118db57611842612c50565b806308c379a00361189e5750611856612c6f565b8061186157506118a0565b806040517f08c379a00000000000000000000000000000000000000000000000000000000081526004016118959190611bfa565b60405180910390fd5b505b6040517f08c379a00000000000000000000000000000000000000000000000000000000081526004016118d290612d6e565b60405180910390fd5b63f23a6e6160e01b7bffffffffffffffffffffffffffffffffffffffffffffffffffffffff1916817bffffffffffffffffffffffffffffffffffffffffffffffffffffffff191614611962576040517f08c379a000000000000000000000000000000000000000000000000000000000815260040161195990612dfc565b60405180910390fd5b505b505050505050565b5f808273ffffffffffffffffffffffffffffffffffffffff163b119050919050565b5f604051905090565b5f80fd5b5f80fd5b5f73ffffffffffffffffffffffffffffffffffffffff82169050919050565b5f6119c88261199f565b9050919050565b6119d8816119be565b81146119e2575f80fd5b50565b5f813590506119f3816119cf565b92915050565b5f819050919050565b611a0b816119f9565b8114611a15575f80fd5b50565b5f81359050611a2681611a02565b92915050565b5f8060408385031215611a4257611a41611997565b5b5f611a4f858286016119e5565b9250506020611a6085828601611a18565b9150509250929050565b611a73816119f9565b82525050565b5f602082019050611a8c5f830184611a6a565b92915050565b5f7fffffffff0000000000000000000000000000000000000000000000000000000082169050919050565b611ac681611a92565b8114611ad0575f80fd5b50565b5f81359050611ae181611abd565b92915050565b5f60208284031215611afc57611afb611997565b5b5f611b0984828501611ad3565b91505092915050565b5f8115159050919050565b611b2681611b12565b82525050565b5f602082019050611b3f5f830184611b1d565b92915050565b5f60208284031215611b5a57611b59611997565b5b5f611b6784828501611a18565b91505092915050565b5f81519050919050565b5f82825260208201905092915050565b5f5b83811015611ba7578082015181840152602081019050611b8c565b5f8484015250505050565b5f601f19601f8301169050919050565b5f611bcc82611b70565b611bd68185611b7a565b9350611be6818560208601611b8a565b611bef81611bb2565b840191505092915050565b5f6020820190508181035f830152611c128184611bc2565b905092915050565b5f80fd5b7f4e487b71000000000000000000000000000000000000000000000000000000005f52604160045260245ffd5b611c5482611bb2565b810181811067ffffffffffffffff82111715611c7357611c72611c1e565b5b80604052505050565b5f611c8561198e565b9050611c918282611c4b565b919050565b5f67ffffffffffffffff821115611cb057611caf611c1e565b5b602082029050602081019050919050565b5f80fd5b5f611cd7611cd284611c96565b611c7c565b90508083825260208201905060208402830185811115611cfa57611cf9611cc1565b5b835b81811015611d235780611d0f8882611a18565b845260208401935050602081019050611cfc565b5050509392505050565b5f82601f830112611d4157611d40611c1a565b5b8135611d51848260208601611cc5565b91505092915050565b5f80fd5b5f67ffffffffffffffff821115611d7857611d77611c1e565b5b611d8182611bb2565b9050602081019050919050565b828183375f83830152505050565b5f611dae611da984611d5e565b611c7c565b905082815260208101848484011115611dca57611dc9611d5a565b5b611dd5848285611d8e565b509392505050565b5f82601f830112611df157611df0611c1a565b5b8135611e01848260208601611d9c565b91505092915050565b5f805f805f60a08688031215611e2357611e22611997565b5b5f611e30888289016119e5565b9550506020611e41888289016119e5565b945050604086013567ffffffffffffffff811115611e6257611e6161199b565b5b611e6e88828901611d2d565b935050606086013567ffffffffffffffff811115611e8f57611e8e61199b565b5b611e9b88828901611d2d565b925050608086013567ffffffffffffffff811115611ebc57611ebb61199b565b5b611ec888828901611ddd565b9150509295509295909350565b5f67ffffffffffffffff821115611eef57611eee611c1e565b5b602082029050602081019050919050565b5f611f12611f0d84611ed5565b611c7c565b90508083825260208201905060208402830185811115611f3557611f34611cc1565b5b835b81811015611f5e5780611f4a88826119e5565b845260208401935050602081019050611f37565b5050509392505050565b5f82601f830112611f7c57611f7b611c1a565b5b8135611f8c848260208601611f00565b91505092915050565b5f8060408385031215611fab57611faa611997565b5b5f83013567ffffffffffffffff811115611fc857611fc761199b565b5b611fd485828601611f68565b925050602083013567ffffffffffffffff811115611ff557611ff461199b565b5b61200185828601611d2d565b9150509250929050565b5f81519050919050565b5f82825260208201905092915050565b5f819050602082019050919050565b61203d816119f9565b82525050565b5f61204e8383612034565b60208301905092915050565b5f602082019050919050565b5f6120708261200b565b61207a8185612015565b935061208583612025565b805f5b838110156120b557815161209c8882612043565b97506120a78361205a565b925050600181019050612088565b5085935050505092915050565b5f6020820190508181035f8301526120da8184612066565b905092915050565b5f805f80608085870312156120fa576120f9611997565b5b5f612107878288016119e5565b945050602061211887828801611a18565b935050604061212987828801611a18565b925050606085013567ffffffffffffffff81111561214a5761214961199b565b5b61215687828801611ddd565b91505092959194509250565b61216b816119be565b82525050565b5f6020820190506121845f830184612162565b92915050565b61219381611b12565b811461219d575f80fd5b50565b5f813590506121ae8161218a565b92915050565b5f80604083850312156121ca576121c9611997565b5b5f6121d7858286016119e5565b92505060206121e8858286016121a0565b9150509250929050565b5f806040838503121561220857612207611997565b5b5f612215858286016119e5565b9250506020612226858286016119e5565b9150509250929050565b5f805f805f60a0868803121561224957612248611997565b5b5f612256888289016119e5565b9550506020612267888289016119e5565b945050604061227888828901611a18565b935050606061228988828901611a18565b925050608086013567ffffffffffffffff8111156122aa576122a961199b565b5b6122b688828901611ddd565b9150509295509295909350565b5f602082840312156122d8576122d7611997565b5b5f6122e5848285016119e5565b91505092915050565b5f805f6060848603121561230557612304611997565b5b5f612312868287016119e5565b935050602061232386828701611a18565b925050604061233486828701611a18565b9150509250925092565b7f455243313135353a2061646472657373207a65726f206973206e6f74206120765f8201527f616c6964206f776e657200000000000000000000000000000000000000000000602082015250565b5f612398602a83611b7a565b91506123a38261233e565b604082019050919050565b5f6020820190508181035f8301526123c58161238c565b9050919050565b7f4e487b71000000000000000000000000000000000000000000000000000000005f52602260045260245ffd5b5f600282049050600182168061241057607f821691505b602082108103612423576124226123cc565b5b50919050565b7f455243313135353a2063616c6c6572206973206e6f7420746f6b656e206f776e5f8201527f6572206f7220617070726f766564000000000000000000000000000000000000602082015250565b5f612483602e83611b7a565b915061248e82612429565b604082019050919050565b5f6020820190508181035f8301526124b081612477565b9050919050565b7f455243313135353a206163636f756e747320616e6420696473206c656e6774685f8201527f206d69736d617463680000000000000000000000000000000000000000000000602082015250565b5f612511602983611b7a565b915061251c826124b7565b604082019050919050565b5f6020820190508181035f83015261253e81612505565b9050919050565b7f4e487b71000000000000000000000000000000000000000000000000000000005f52603260045260245ffd5b7f4e487b71000000000000000000000000000000000000000000000000000000005f52601160045260245ffd5b5f6125a9826119f9565b91507fffffffffffffffffffffffffffffffffffffffffffffffffffffffffffffffff82036125db576125da612572565b5b600182019050919050565b7f4f776e61626c653a206e6577206f776e657220697320746865207a65726f20615f8201527f6464726573730000000000000000000000000000000000000000000000000000602082015250565b5f612640602683611b7a565b915061264b826125e6565b604082019050919050565b5f6020820190508181035f83015261266d81612634565b9050919050565b7f455243313135353a2069647320616e6420616d6f756e7473206c656e677468205f8201527f6d69736d61746368000000000000000000000000000000000000000000000000602082015250565b5f6126ce602883611b7a565b91506126d982612674565b604082019050919050565b5f6020820190508181035f8301526126fb816126c2565b9050919050565b7f455243313135353a207472616e7366657220746f20746865207a65726f2061645f8201527f6472657373000000000000000000000000000000000000000000000000000000602082015250565b5f61275c602583611b7a565b915061276782612702565b604082019050919050565b5f6020820190508181035f83015261278981612750565b9050919050565b7f455243313135353a20696e73756666696369656e742062616c616e636520666f5f8201527f72207472616e7366657200000000000000000000000000000000000000000000602082015250565b5f6127ea602a83611b7a565b91506127f582612790565b604082019050919050565b5f6020820190508181035f830152612817816127de565b9050919050565b5f612828826119f9565b9150612833836119f9565b925082820190508082111561284b5761284a612572565b5b92915050565b5f6040820190508181035f8301526128698185612066565b9050818103602083015261287d8184612066565b90509392505050565b7f4f776e61626c653a2063616c6c6572206973206e6f7420746865206f776e65725f82015250565b5f6128ba602083611b7a565b91506128c582612886565b602082019050919050565b5f6020820190508181035f8301526128e7816128ae565b9050919050565b7f455243313135353a206d696e7420746f20746865207a65726f206164647265735f8201527f7300000000000000000000000000000000000000000000000000000000000000602082015250565b5f612948602183611b7a565b9150612953826128ee565b604082019050919050565b5f6020820190508181035f8301526129758161293c565b9050919050565b5f60408201905061298f5f830185611a6a565b61299c6020830184611a6a565b9392505050565b7f455243313135353a2073657474696e6720617070726f76616c207374617475735f8201527f20666f722073656c660000000000000000000000000000000000000000000000602082015250565b5f6129fd602983611b7a565b9150612a08826129a3565b604082019050919050565b5f6020820190508181035f830152612a2a816129f1565b9050919050565b7f455243313135353a206275726e2066726f6d20746865207a65726f20616464725f8201527f6573730000000000000000000000000000000000000000000000000000000000602082015250565b5f612a8b602383611b7a565b9150612a9682612a31565b604082019050919050565b5f6020820190508181035f830152612ab881612a7f565b9050919050565b7f455243313135353a206275726e20616d6f756e7420657863656564732062616c5f8201527f616e636500000000000000000000000000000000000000000000000000000000602082015250565b5f612b19602483611b7a565b9150612b2482612abf565b604082019050919050565b5f6020820190508181035f830152612b4681612b0d565b9050919050565b5f81519050919050565b5f82825260208201905092915050565b5f612b7182612b4d565b612b7b8185612b57565b9350612b8b818560208601611b8a565b612b9481611bb2565b840191505092915050565b5f60a082019050612bb25f830188612162565b612bbf6020830187612162565b8181036040830152612bd18186612066565b90508181036060830152612be58185612066565b90508181036080830152612bf98184612b67565b90509695505050505050565b5f81519050612c1381611abd565b92915050565b5f60208284031215612c2e57612c2d611997565b5b5f612c3b84828501612c05565b91505092915050565b5f8160e01c9050919050565b5f60033d1115612c6c5760045f803e612c695f51612c44565b90505b90565b5f60443d10612cfb57612c8061198e565b60043d036004823e80513d602482011167ffffffffffffffff82111715612ca8575050612cfb565b808201805167ffffffffffffffff811115612cc65750505050612cfb565b80602083010160043d038501811115612ce3575050505050612cfb565b612cf282602001850186611c4b565b82955050505050505b90565b7f455243313135353a207472616e7366657220746f206e6f6e2d455243313135355f8201527f526563656976657220696d706c656d656e746572000000000000000000000000602082015250565b5f612d58603483611b7a565b9150612d6382612cfe565b604082019050919050565b5f6020820190508181035f830152612d8581612d4c565b9050919050565b7f455243313135353a204552433131353552656365697665722072656a656374655f8201527f6420746f6b656e73000000000000000000000000000000000000000000000000602082015250565b5f612de6602883611b7a565b9150612df182612d8c565b604082019050919050565b5f6020820190508181035f830152612e1381612dda565b9050919050565b5f60a082019050612e2d5f830188612162565b612e3a6020830187612162565b612e476040830186611a6a565b612e546060830185611a6a565b8181036080830152612e668184612b67565b9050969550505050505056fea2646970667358221220394015b3240a97587ee5eda744c4305e14c4857aeba5c239fc3d41681e4d5f1b64736f6c6343000815003368747470733a2f2f6578616d706c652e636f6d2f746f6b656e732f7b69647d2e6a736f6e",
  "immutableReferences": {},
  "source": "// SPDX-License-Identifier: MIT\r\n\r\npragma solidity ^0.8.7;\r\n\r\nimport '@openzeppelin/contracts/token/ERC1155/ERC1155.sol';\r\nimport '@openzeppelin/contracts/access/Ownable.sol';\r\n\r\ncontract MyERC1155Token is ERC1155, Ownable {\r\n    constructor() ERC1155('https://example.com/tokens/{id}.json') {\r\n        _mint(msg.sender, 1, 100, \"\"); // Balangta 100 adet token mint\r\n    }\r\n\r\n    function mint(address to, uint256 id, uint256 amount, bytes memory data) public onlyOwner {\r\n        _mint(to, id, amount, data);\r\n    }\r\n\r\n    function burn(address from, uint256 id, uint256 amount) public onlyOwner {\r\n        _burn(from, id, amount);\r\n    }\r\n}\r\n",
  "sourcePath": "C:\\Users\\Dell\\MyERCTokenMint\\contracts\\MyERC1155Token.sol",
  "compiler": {
    "name": "solc",
    "version": "0.8.21+commit.d9974bed.Emscripten.clang"
  },
  "schemaVersion": "3.4.15",
  "updatedAt": "2023-08-19T08:09:09.267Z",
  "devdoc": {
    "events": {
      "ApprovalForAll(address,address,bool)": {
        "details": "Emitted when `account` grants or revokes permission to `operator` to transfer their tokens, according to `approved`."
      },
      "TransferBatch(address,address,address,uint256[],uint256[])": {
        "details": "Equivalent to multiple {TransferSingle} events, where `operator`, `from` and `to` are the same for all transfers."
      },
      "TransferSingle(address,address,address,uint256,uint256)": {
        "details": "Emitted when `value` tokens of token type `id` are transferred from `from` to `to` by `operator`."
      },
      "URI(string,uint256)": {
        "details": "Emitted when the URI for token type `id` changes to `value`, if it is a non-programmatic URI. If an {URI} event was emitted for `id`, the standard https://eips.ethereum.org/EIPS/eip-1155#metadata-extensions[guarantees] that `value` will equal the value returned by {IERC1155MetadataURI-uri}."
      }
    },
    "kind": "dev",
    "methods": {
      "balanceOf(address,uint256)": {
        "details": "See {IERC1155-balanceOf}. Requirements: - `account` cannot be the zero address."
      },
      "balanceOfBatch(address[],uint256[])": {
        "details": "See {IERC1155-balanceOfBatch}. Requirements: - `accounts` and `ids` must have the same length."
      },
      "isApprovedForAll(address,address)": {
        "details": "See {IERC1155-isApprovedForAll}."
      },
      "owner()": {
        "details": "Returns the address of the current owner."
      },
      "renounceOwnership()": {
        "details": "Leaves the contract without owner. It will not be possible to call `onlyOwner` functions. Can only be called by the current owner. NOTE: Renouncing ownership will leave the contract without an owner, thereby disabling any functionality that is only available to the owner."
      },
      "safeBatchTransferFrom(address,address,uint256[],uint256[],bytes)": {
        "details": "See {IERC1155-safeBatchTransferFrom}."
      },
      "safeTransferFrom(address,address,uint256,uint256,bytes)": {
        "details": "See {IERC1155-safeTransferFrom}."
      },
      "setApprovalForAll(address,bool)": {
        "details": "See {IERC1155-setApprovalForAll}."
      },
      "supportsInterface(bytes4)": {
        "details": "See {IERC165-supportsInterface}."
      },
      "transferOwnership(address)": {
        "details": "Transfers ownership of the contract to a new account (`newOwner`). Can only be called by the current owner."
      },
      "uri(uint256)": {
        "details": "See {IERC1155MetadataURI-uri}. This implementation returns the same URI for *all* token types. It relies on the token type ID substitution mechanism https://eips.ethereum.org/EIPS/eip-1155#metadata[defined in the EIP]. Clients calling this function must replace the `\\{id\\}` substring with the actual token type ID."
      }
    },
    "version": 1
  },
  "userdoc": {
    "kind": "user",
    "methods": {},
    "version": 1
  }
}