{
  "contractName": "MyERC721Token",
  "abi": [
    {
      "inputs": [],
      "stateMutability": "payable",
      "type": "constructor"
    },
    {
      "anonymous": false,
      "inputs": [
        {
          "indexed": true,
          "internalType": "address",
          "name": "owner",
          "type": "address"
        },
        {
          "indexed": true,
          "internalType": "address",
          "name": "approved",
          "type": "address"
        },
        {
          "indexed": true,
          "internalType": "uint256",
          "name": "tokenId",
          "type": "uint256"
        }
      ],
      "name": "Approval",
      "type": "event"
    },
    {
      "anonymous": false,
      "inputs": [
        {
          "indexed": true,
          "internalType": "address",
          "name": "owner",
          "type": "address"
        },
        {
          "indexed": true,
          "internalType": "address",
          "name": "operator",
          "type": "address"
        },
        {
          "indexed": false,
          "internalType": "bool",
          "name": "approved",
          "type": "bool"
        }
      ],
      "name": "ApprovalForAll",
      "type": "event"
    },
    {
      "anonymous": false,
      "inputs": [
        {
          "indexed": true,
          "internalType": "address",
          "name": "previousOwner",
          "type": "address"
        },
        {
          "indexed": true,
          "internalType": "address",
          "name": "newOwner",
          "type": "address"
        }
      ],
      "name": "OwnershipTransferred",
      "type": "event"
    },
    {
      "anonymous": false,
      "inputs": [
        {
          "indexed": true,
          "internalType": "address",
          "name": "from",
          "type": "address"
        },
        {
          "indexed": true,
          "internalType": "address",
          "name": "to",
          "type": "address"
        },
        {
          "indexed": true,
          "internalType": "uint256",
          "name": "tokenId",
          "type": "uint256"
        }
      ],
      "name": "Transfer",
      "type": "event"
    },
    {
      "inputs": [
        {
          "internalType": "address",
          "name": "to",
          "type": "address"
        },
        {
          "internalType": "uint256",
          "name": "tokenId",
          "type": "uint256"
        }
      ],
      "name": "approve",
      "outputs": [],
      "stateMutability": "nonpayable",
      "type": "function"
    },
    {
      "inputs": [
        {
          "internalType": "address",
          "name": "owner",
          "type": "address"
        }
      ],
      "name": "balanceOf",
      "outputs": [
        {
          "internalType": "uint256",
          "name": "",
          "type": "uint256"
        }
      ],
      "stateMutability": "view",
      "type": "function"
    },
    {
      "inputs": [
        {
          "internalType": "uint256",
          "name": "tokenId",
          "type": "uint256"
        }
      ],
      "name": "getApproved",
      "outputs": [
        {
          "internalType": "address",
          "name": "",
          "type": "address"
        }
      ],
      "stateMutability": "view",
      "type": "function"
    },
    {
      "inputs": [
        {
          "internalType": "address",
          "name": "owner",
          "type": "address"
        },
        {
          "internalType": "address",
          "name": "operator",
          "type": "address"
        }
      ],
      "name": "isApprovedForAll",
      "outputs": [
        {
          "internalType": "bool",
          "name": "",
          "type": "bool"
        }
      ],
      "stateMutability": "view",
      "type": "function"
    },
    {
      "inputs": [],
      "name": "isMyERC721TokenEnabled",
      "outputs": [
        {
          "internalType": "bool",
          "name": "",
          "type": "bool"
        }
      ],
      "stateMutability": "view",
      "type": "function"
    },
    {
      "inputs": [],
      "name": "maxMint",
      "outputs": [
        {
          "internalType": "uint8",
          "name": "",
          "type": "uint8"
        }
      ],
      "stateMutability": "view",
      "type": "function"
    },
    {
      "inputs": [],
      "name": "maxSupply",
      "outputs": [
        {
          "internalType": "uint256",
          "name": "",
          "type": "uint256"
        }
      ],
      "stateMutability": "view",
      "type": "function"
    },
    {
      "inputs": [],
      "name": "mintPrice",
      "outputs": [
        {
          "internalType": "uint256",
          "name": "",
          "type": "uint256"
        }
      ],
      "stateMutability": "view",
      "type": "function"
    },
    {
      "inputs": [],
      "name": "name",
      "outputs": [
        {
          "internalType": "string",
          "name": "",
          "type": "string"
        }
      ],
      "stateMutability": "view",
      "type": "function"
    },
    {
      "inputs": [],
      "name": "owner",
      "outputs": [
        {
          "internalType": "address",
          "name": "",
          "type": "address"
        }
      ],
      "stateMutability": "view",
      "type": "function"
    },
    {
      "inputs": [
        {
          "internalType": "uint256",
          "name": "tokenId",
          "type": "uint256"
        }
      ],
      "name": "ownerOf",
      "outputs": [
        {
          "internalType": "address",
          "name": "",
          "type": "address"
        }
      ],
      "stateMutability": "view",
      "type": "function"
    },
    {
      "inputs": [],
      "name": "renounceOwnership",
      "outputs": [],
      "stateMutability": "nonpayable",
      "type": "function"
    },
    {
      "inputs": [
        {
          "internalType": "address",
          "name": "from",
          "type": "address"
        },
        {
          "internalType": "address",
          "name": "to",
          "type": "address"
        },
        {
          "internalType": "uint256",
          "name": "tokenId",
          "type": "uint256"
        }
      ],
      "name": "safeTransferFrom",
      "outputs": [],
      "stateMutability": "nonpayable",
      "type": "function"
    },
    {
      "inputs": [
        {
          "internalType": "address",
          "name": "from",
          "type": "address"
        },
        {
          "internalType": "address",
          "name": "to",
          "type": "address"
        },
        {
          "internalType": "uint256",
          "name": "tokenId",
          "type": "uint256"
        },
        {
          "internalType": "bytes",
          "name": "data",
          "type": "bytes"
        }
      ],
      "name": "safeTransferFrom",
      "outputs": [],
      "stateMutability": "nonpayable",
      "type": "function"
    },
    {
      "inputs": [
        {
          "internalType": "address",
          "name": "operator",
          "type": "address"
        },
        {
          "internalType": "bool",
          "name": "approved",
          "type": "bool"
        }
      ],
      "name": "setApprovalForAll",
      "outputs": [],
      "stateMutability": "nonpayable",
      "type": "function"
    },
    {
      "inputs": [
        {
          "internalType": "bytes4",
          "name": "interfaceId",
          "type": "bytes4"
        }
      ],
      "name": "supportsInterface",
      "outputs": [
        {
          "internalType": "bool",
          "name": "",
          "type": "bool"
        }
      ],
      "stateMutability": "view",
      "type": "function"
    },
    {
      "inputs": [],
      "name": "symbol",
      "outputs": [
        {
          "internalType": "string",
          "name": "",
          "type": "string"
        }
      ],
      "stateMutability": "view",
      "type": "function"
    },
    {
      "inputs": [],
      "name": "totalSupply",
      "outputs": [
        {
          "internalType": "uint256",
          "name": "",
          "type": "uint256"
        }
      ],
      "stateMutability": "view",
      "type": "function"
    },
    {
      "inputs": [
        {
          "internalType": "address",
          "name": "from",
          "type": "address"
        },
        {
          "internalType": "address",
          "name": "to",
          "type": "address"
        },
        {
          "internalType": "uint256",
          "name": "tokenId",
          "type": "uint256"
        }
      ],
      "name": "transferFrom",
      "outputs": [],
      "stateMutability": "nonpayable",
      "type": "function"
    },
    {
      "inputs": [
        {
          "internalType": "address",
          "name": "newOwner",
          "type": "address"
        }
      ],
      "name": "transferOwnership",
      "outputs": [],
      "stateMutability": "nonpayable",
      "type": "function"
    },
    {
      "inputs": [
        {
          "internalType": "address",
          "name": "",
          "type": "address"
        }
      ],
      "name": "walletMints",
      "outputs": [
        {
          "internalType": "uint8",
          "name": "",
          "type": "uint8"
        }
      ],
      "stateMutability": "view",
      "type": "function"
    },
    {
      "inputs": [
        {
          "internalType": "bool",
          "name": "isMyERC721TokenEnabled_",
          "type": "bool"
        }
      ],
      "name": "setIsMyERC721TokenEnabled",
      "outputs": [],
      "stateMutability": "nonpayable",
      "type": "function"
    },
    {
      "inputs": [
        {
          "internalType": "string",
          "name": "newBaseTokenUri",
          "type": "string"
        }
      ],
      "name": "setBaseTokenUri",
      "outputs": [],
      "stateMutability": "nonpayable",
      "type": "function"
    },
    {
      "inputs": [
        {
          "internalType": "uint256",
          "name": "tokenId_",
          "type": "uint256"
        }
      ],
      "name": "tokenURI",
      "outputs": [
        {
          "internalType": "string",
          "name": "",
          "type": "string"
        }
      ],
      "stateMutability": "view",
      "type": "function"
    },
    {
      "inputs": [
        {
          "internalType": "uint8",
          "name": "quantity_",
          "type": "uint8"
        }
      ],
      "name": "mint",
      "outputs": [],
      "stateMutability": "payable",
      "type": "function"
    },
    {
      "inputs": [],
      "name": "withdraw",
      "outputs": [],
      "stateMutability": "nonpayable",
      "type": "function"
    }
  ],
  "bytecode": "0x60806040526040518060400160405280600d81526020017f4d79455243373231546f6b656e000000000000000000000000000000000000008152506040518060400160405280600481526020017f4d45375400000000000000000000000000000000000000000000000000000000815250815f908162000080919062000484565b50806001908162000092919062000484565b505050620000b5620000a96200015660201b60201c565b6200015d60201b60201c565b662386f26fc100006007819055505f6008819055506103e86009819055506003600a5f6101000a81548160ff021916908360ff1602179055506001600a60016101000a81548160ff0219169083151502179055506040518060400160405280601b81526020017f68747470733a2f2f6578616d706c652e636f6d2f746f6b656e732f0000000000815250600b90816200014f919062000484565b5062000568565b5f33905090565b5f60065f9054906101000a900473ffffffffffffffffffffffffffffffffffffffff1690508160065f6101000a81548173ffffffffffffffffffffffffffffffffffffffff021916908373ffffffffffffffffffffffffffffffffffffffff1602179055508173ffffffffffffffffffffffffffffffffffffffff168173ffffffffffffffffffffffffffffffffffffffff167f8be0079c531659141344cd1fd0a4f28419497f9722a3daafe3b4186f6b6457e060405160405180910390a35050565b5f81519050919050565b7f4e487b71000000000000000000000000000000000000000000000000000000005f52604160045260245ffd5b7f4e487b71000000000000000000000000000000000000000000000000000000005f52602260045260245ffd5b5f60028204905060018216806200029c57607f821691505b602082108103620002b257620002b162000257565b5b50919050565b5f819050815f5260205f209050919050565b5f6020601f8301049050919050565b5f82821b905092915050565b5f60088302620003167fffffffffffffffffffffffffffffffffffffffffffffffffffffffffffffffff82620002d9565b620003228683620002d9565b95508019841693508086168417925050509392505050565b5f819050919050565b5f819050919050565b5f6200036c6200036662000360846200033a565b62000343565b6200033a565b9050919050565b5f819050919050565b62000387836200034c565b6200039f620003968262000373565b848454620002e5565b825550505050565b5f90565b620003b5620003a7565b620003c28184846200037c565b505050565b5b81811015620003e957620003dd5f82620003ab565b600181019050620003c8565b5050565b601f82111562000438576200040281620002b8565b6200040d84620002ca565b810160208510156200041d578190505b620004356200042c85620002ca565b830182620003c7565b50505b505050565b5f82821c905092915050565b5f6200045a5f19846008026200043d565b1980831691505092915050565b5f62000474838362000449565b9150826002028217905092915050565b6200048f8262000220565b67ffffffffffffffff811115620004ab57620004aa6200022a565b5b620004b7825462000284565b620004c4828285620003ed565b5f60209050601f831160018114620004fa575f8415620004e5578287015190505b620004f1858262000467565b86555062000560565b601f1984166200050a86620002b8565b5f5b8281101562000533578489015182556001820191506020850194506020810190506200050c565b868310156200055357848901516200054f601f89168262000449565b8355505b6001600288020188555050505b505050505050565b6135ff80620005765f395ff3fe608060405260043610610180575f3560e01c80637501f741116100d0578063bc9253bc11610089578063e985e9c511610063578063e985e9c514610538578063f0293fd314610574578063f2fde38b146105b0578063f89e4f8f146105d857610180565b8063bc9253bc146104a8578063c87b56dd146104d2578063d5abeb011461050e57610180565b80637501f741146103b25780638da5cb5b146103dc57806395652cfa1461040657806395d89b411461042e578063a22cb46514610458578063b88d4fde1461048057610180565b80633ccfd60b1161013d5780636817c76c116101175780636817c76c1461031a5780636ecd23061461034457806370a0823114610360578063715018a61461039c57610180565b80633ccfd60b146102a057806342842e0e146102b65780636352211e146102de57610180565b806301ffc9a71461018457806306fdde03146101c0578063081812fc146101ea578063095ea7b31461022657806318160ddd1461024e57806323b872dd14610278575b5f80fd5b34801561018f575f80fd5b506101aa60048036038101906101a5919061202f565b610600565b6040516101b79190612074565b60405180910390f35b3480156101cb575f80fd5b506101d46106e1565b6040516101e19190612117565b60405180910390f35b3480156101f5575f80fd5b50610210600480360381019061020b919061216a565b610770565b60405161021d91906121d4565b60405180910390f35b348015610231575f80fd5b5061024c60048036038101906102479190612217565b6107b2565b005b348015610259575f80fd5b506102626108c8565b60405161026f9190612264565b60405180910390f35b348015610283575f80fd5b5061029e6004803603810190610299919061227d565b6108ce565b005b3480156102ab575f80fd5b506102b461092e565b005b3480156102c1575f80fd5b506102dc60048036038101906102d7919061227d565b6109e1565b005b3480156102e9575f80fd5b5061030460048036038101906102ff919061216a565b610a00565b60405161031191906121d4565b60405180910390f35b348015610325575f80fd5b5061032e610a84565b60405161033b9190612264565b60405180910390f35b61035e60048036038101906103599190612303565b610a8a565b005b34801561036b575f80fd5b506103866004803603810190610381919061232e565b610cf8565b6040516103939190612264565b60405180910390f35b3480156103a7575f80fd5b506103b0610dac565b005b3480156103bd575f80fd5b506103c6610dbf565b6040516103d39190612368565b60405180910390f35b3480156103e7575f80fd5b506103f0610dd1565b6040516103fd91906121d4565b60405180910390f35b348015610411575f80fd5b5061042c600480360381019061042791906123e2565b610df9565b005b348015610439575f80fd5b50610442610e17565b60405161044f9190612117565b60405180910390f35b348015610463575f80fd5b5061047e60048036038101906104799190612457565b610ea7565b005b34801561048b575f80fd5b506104a660048036038101906104a191906125bd565b610ebd565b005b3480156104b3575f80fd5b506104bc610f1f565b6040516104c99190612074565b60405180910390f35b3480156104dd575f80fd5b506104f860048036038101906104f3919061216a565b610f32565b6040516105059190612117565b60405180910390f35b348015610519575f80fd5b50610522610fae565b60405161052f9190612264565b60405180910390f35b348015610543575f80fd5b5061055e6004803603810190610559919061263d565b610fb4565b60405161056b9190612074565b60405180910390f35b34801561057f575f80fd5b5061059a6004803603810190610595919061232e565b611042565b6040516105a79190612368565b60405180910390f35b3480156105bb575f80fd5b506105d660048036038101906105d1919061232e565b61105f565b005b3480156105e3575f80fd5b506105fe60048036038101906105f9919061267b565b6110e1565b005b5f7f80ac58cd000000000000000000000000000000000000000000000000000000007bffffffffffffffffffffffffffffffffffffffffffffffffffffffff1916827bffffffffffffffffffffffffffffffffffffffffffffffffffffffff191614806106ca57507f5b5e139f000000000000000000000000000000000000000000000000000000007bffffffffffffffffffffffffffffffffffffffffffffffffffffffff1916827bffffffffffffffffffffffffffffffffffffffffffffffffffffffff1916145b806106da57506106d982611106565b5b9050919050565b60605f80546106ef906126d3565b80601f016020809104026020016040519081016040528092919081815260200182805461071b906126d3565b80156107665780601f1061073d57610100808354040283529160200191610766565b820191905f5260205f20905b81548152906001019060200180831161074957829003601f168201915b5050505050905090565b5f61077a8261116f565b60045f8381526020019081526020015f205f9054906101000a900473ffffffffffffffffffffffffffffffffffffffff169050919050565b5f6107bc82610a00565b90508073ffffffffffffffffffffffffffffffffffffffff168373ffffffffffffffffffffffffffffffffffffffff160361082c576040517f08c379a000000000000000000000000000000000000000000000000000000000815260040161082390612773565b60405180910390fd5b8073ffffffffffffffffffffffffffffffffffffffff1661084b6111ba565b73ffffffffffffffffffffffffffffffffffffffff16148061087a5750610879816108746111ba565b610fb4565b5b6108b9576040517f08c379a00000000000000000000000000000000000000000000000000000000081526004016108b090612801565b60405180910390fd5b6108c383836111c1565b505050565b60085481565b6108df6108d96111ba565b82611277565b61091e576040517f08c379a00000000000000000000000000000000000000000000000000000000081526004016109159061288f565b60405180910390fd5b61092983838361130b565b505050565b6109366115f7565b5f3373ffffffffffffffffffffffffffffffffffffffff164760405161095b906128da565b5f6040518083038185875af1925050503d805f8114610995576040519150601f19603f3d011682016040523d82523d5f602084013e61099a565b606091505b50509050806109de576040517f08c379a00000000000000000000000000000000000000000000000000000000081526004016109d590612938565b60405180910390fd5b50565b6109fb83838360405180602001604052805f815250610ebd565b505050565b5f80610a0b83611675565b90505f73ffffffffffffffffffffffffffffffffffffffff168173ffffffffffffffffffffffffffffffffffffffff1603610a7b576040517f08c379a0000000000000000000000000000000000000000000000000000000008152600401610a72906129a0565b60405180910390fd5b80915050919050565b60075481565b600a60019054906101000a900460ff16610ad9576040517f08c379a0000000000000000000000000000000000000000000000000000000008152600401610ad090612a08565b60405180910390fd5b6007548160ff16610aea9190612a53565b3414610b2b576040517f08c379a0000000000000000000000000000000000000000000000000000000008152600401610b2290612ade565b60405180910390fd5b6009548160ff16600854610b3f9190612afc565b1115610b80576040517f08c379a0000000000000000000000000000000000000000000000000000000008152600401610b7790612b79565b60405180910390fd5b600a5f9054906101000a900460ff1660ff1681600c5f3373ffffffffffffffffffffffffffffffffffffffff1673ffffffffffffffffffffffffffffffffffffffff1681526020019081526020015f205f9054906101000a900460ff16610be79190612b97565b60ff161115610c2b576040517f08c379a0000000000000000000000000000000000000000000000000000000008152600401610c2290612c15565b60405180910390fd5b5f5b8160ff168160ff161015610cf4575f6001600854610c4b9190612afc565b905060085f815480929190610c5f90612c33565b9190505550610c6e33826116ae565b600c5f3373ffffffffffffffffffffffffffffffffffffffff1673ffffffffffffffffffffffffffffffffffffffff1681526020019081526020015f205f81819054906101000a900460ff1680929190610cc790612c7a565b91906101000a81548160ff021916908360ff16021790555050508080610cec90612c7a565b915050610c2d565b5050565b5f8073ffffffffffffffffffffffffffffffffffffffff168273ffffffffffffffffffffffffffffffffffffffff1603610d67576040517f08c379a0000000000000000000000000000000000000000000000000000000008152600401610d5e90612d12565b60405180910390fd5b60035f8373ffffffffffffffffffffffffffffffffffffffff1673ffffffffffffffffffffffffffffffffffffffff1681526020019081526020015f20549050919050565b610db46115f7565b610dbd5f6116cb565b565b600a5f9054906101000a900460ff1681565b5f60065f9054906101000a900473ffffffffffffffffffffffffffffffffffffffff16905090565b610e016115f7565b8181600b9182610e12929190612ed7565b505050565b606060018054610e26906126d3565b80601f0160208091040260200160405190810160405280929190818152602001828054610e52906126d3565b8015610e9d5780601f10610e7457610100808354040283529160200191610e9d565b820191905f5260205f20905b815481529060010190602001808311610e8057829003601f168201915b5050505050905090565b610eb9610eb26111ba565b838361178e565b5050565b610ece610ec86111ba565b83611277565b610f0d576040517f08c379a0000000000000000000000000000000000000000000000000000000008152600401610f049061288f565b60405180910390fd5b610f19848484846118f5565b50505050565b600a60019054906101000a900460ff1681565b6060610f3d82611951565b610f7c576040517f08c379a0000000000000000000000000000000000000000000000000000000008152600401610f7390612fee565b60405180910390fd5b600b610f8783611991565b604051602001610f989291906130c6565b6040516020818303038152906040529050919050565b60095481565b5f60055f8473ffffffffffffffffffffffffffffffffffffffff1673ffffffffffffffffffffffffffffffffffffffff1681526020019081526020015f205f8373ffffffffffffffffffffffffffffffffffffffff1673ffffffffffffffffffffffffffffffffffffffff1681526020019081526020015f205f9054906101000a900460ff16905092915050565b600c602052805f5260405f205f915054906101000a900460ff1681565b6110676115f7565b5f73ffffffffffffffffffffffffffffffffffffffff168173ffffffffffffffffffffffffffffffffffffffff16036110d5576040517f08c379a00000000000000000000000000000000000000000000000000000000081526004016110cc90613159565b60405180910390fd5b6110de816116cb565b50565b6110e96115f7565b80600a60016101000a81548160ff02191690831515021790555050565b5f7f01ffc9a7000000000000000000000000000000000000000000000000000000007bffffffffffffffffffffffffffffffffffffffffffffffffffffffff1916827bffffffffffffffffffffffffffffffffffffffffffffffffffffffff1916149050919050565b61117881611951565b6111b7576040517f08c379a00000000000000000000000000000000000000000000000000000000081526004016111ae906129a0565b60405180910390fd5b50565b5f33905090565b8160045f8381526020019081526020015f205f6101000a81548173ffffffffffffffffffffffffffffffffffffffff021916908373ffffffffffffffffffffffffffffffffffffffff160217905550808273ffffffffffffffffffffffffffffffffffffffff1661123183610a00565b73ffffffffffffffffffffffffffffffffffffffff167f8c5be1e5ebec7d5bd14f71427d1e84f3dd0314c0f7b2291e5b200ac8c7c3b92560405160405180910390a45050565b5f8061128283610a00565b90508073ffffffffffffffffffffffffffffffffffffffff168473ffffffffffffffffffffffffffffffffffffffff1614806112c457506112c38185610fb4565b5b8061130257508373ffffffffffffffffffffffffffffffffffffffff166112ea84610770565b73ffffffffffffffffffffffffffffffffffffffff16145b91505092915050565b8273ffffffffffffffffffffffffffffffffffffffff1661132b82610a00565b73ffffffffffffffffffffffffffffffffffffffff1614611381576040517f08c379a0000000000000000000000000000000000000000000000000000000008152600401611378906131e7565b60405180910390fd5b5f73ffffffffffffffffffffffffffffffffffffffff168273ffffffffffffffffffffffffffffffffffffffff16036113ef576040517f08c379a00000000000000000000000000000000000000000000000000000000081526004016113e690613275565b60405180910390fd5b6113fc8383836001611a5b565b8273ffffffffffffffffffffffffffffffffffffffff1661141c82610a00565b73ffffffffffffffffffffffffffffffffffffffff1614611472576040517f08c379a0000000000000000000000000000000000000000000000000000000008152600401611469906131e7565b60405180910390fd5b60045f8281526020019081526020015f205f6101000a81549073ffffffffffffffffffffffffffffffffffffffff0219169055600160035f8573ffffffffffffffffffffffffffffffffffffffff1673ffffffffffffffffffffffffffffffffffffffff1681526020019081526020015f205f8282540392505081905550600160035f8473ffffffffffffffffffffffffffffffffffffffff1673ffffffffffffffffffffffffffffffffffffffff1681526020019081526020015f205f82825401925050819055508160025f8381526020019081526020015f205f6101000a81548173ffffffffffffffffffffffffffffffffffffffff021916908373ffffffffffffffffffffffffffffffffffffffff160217905550808273ffffffffffffffffffffffffffffffffffffffff168473ffffffffffffffffffffffffffffffffffffffff167fddf252ad1be2c89b69c2b068fc378daa952ba7f163c4a11628f55a4df523b3ef60405160405180910390a46115f28383836001611a61565b505050565b6115ff6111ba565b73ffffffffffffffffffffffffffffffffffffffff1661161d610dd1565b73ffffffffffffffffffffffffffffffffffffffff1614611673576040517f08c379a000000000000000000000000000000000000000000000000000000000815260040161166a906132dd565b60405180910390fd5b565b5f60025f8381526020019081526020015f205f9054906101000a900473ffffffffffffffffffffffffffffffffffffffff169050919050565b6116c7828260405180602001604052805f815250611a67565b5050565b5f60065f9054906101000a900473ffffffffffffffffffffffffffffffffffffffff1690508160065f6101000a81548173ffffffffffffffffffffffffffffffffffffffff021916908373ffffffffffffffffffffffffffffffffffffffff1602179055508173ffffffffffffffffffffffffffffffffffffffff168173ffffffffffffffffffffffffffffffffffffffff167f8be0079c531659141344cd1fd0a4f28419497f9722a3daafe3b4186f6b6457e060405160405180910390a35050565b8173ffffffffffffffffffffffffffffffffffffffff168373ffffffffffffffffffffffffffffffffffffffff16036117fc576040517f08c379a00000000000000000000000000000000000000000000000000000000081526004016117f390613345565b60405180910390fd5b8060055f8573ffffffffffffffffffffffffffffffffffffffff1673ffffffffffffffffffffffffffffffffffffffff1681526020019081526020015f205f8473ffffffffffffffffffffffffffffffffffffffff1673ffffffffffffffffffffffffffffffffffffffff1681526020019081526020015f205f6101000a81548160ff0219169083151502179055508173ffffffffffffffffffffffffffffffffffffffff168373ffffffffffffffffffffffffffffffffffffffff167f17307eab39ab6107e8899845ad3d59bd9653f200f220920489ca2b5937696c31836040516118e89190612074565b60405180910390a3505050565b61190084848461130b565b61190c84848484611ac1565b61194b576040517f08c379a0000000000000000000000000000000000000000000000000000000008152600401611942906133d3565b60405180910390fd5b50505050565b5f8073ffffffffffffffffffffffffffffffffffffffff1661197283611675565b73ffffffffffffffffffffffffffffffffffffffff1614159050919050565b60605f600161199f84611c43565b0190505f8167ffffffffffffffff8111156119bd576119bc612499565b5b6040519080825280601f01601f1916602001820160405280156119ef5781602001600182028036833780820191505090505b5090505f82602001820190505b600115611a50578080600190039150507f3031323334353637383961626364656600000000000000000000000000000000600a86061a8153600a8581611a4557611a446133f1565b5b0494505f85036119fc575b819350505050919050565b50505050565b50505050565b611a718383611d94565b611a7d5f848484611ac1565b611abc576040517f08c379a0000000000000000000000000000000000000000000000000000000008152600401611ab3906133d3565b60405180910390fd5b505050565b5f611ae18473ffffffffffffffffffffffffffffffffffffffff16611fa7565b15611c36578373ffffffffffffffffffffffffffffffffffffffff1663150b7a02611b0a6111ba565b8786866040518563ffffffff1660e01b8152600401611b2c9493929190613470565b6020604051808303815f875af1925050508015611b6757506040513d601f19601f82011682018060405250810190611b6491906134ce565b60015b611be6573d805f8114611b95576040519150601f19603f3d011682016040523d82523d5f602084013e611b9a565b606091505b505f815103611bde576040517f08c379a0000000000000000000000000000000000000000000000000000000008152600401611bd5906133d3565b60405180910390fd5b805181602001fd5b63150b7a0260e01b7bffffffffffffffffffffffffffffffffffffffffffffffffffffffff1916817bffffffffffffffffffffffffffffffffffffffffffffffffffffffff191614915050611c3b565b600190505b949350505050565b5f805f90507a184f03e93ff9f4daa797ed6e38ed64bf6a1f0100000000000000008310611c9f577a184f03e93ff9f4daa797ed6e38ed64bf6a1f0100000000000000008381611c9557611c946133f1565b5b0492506040810190505b6d04ee2d6d415b85acef81000000008310611cdc576d04ee2d6d415b85acef81000000008381611cd257611cd16133f1565b5b0492506020810190505b662386f26fc100008310611d0b57662386f26fc100008381611d0157611d006133f1565b5b0492506010810190505b6305f5e1008310611d34576305f5e1008381611d2a57611d296133f1565b5b0492506008810190505b6127108310611d59576127108381611d4f57611d4e6133f1565b5b0492506004810190505b60648310611d7c5760648381611d7257611d716133f1565b5b0492506002810190505b600a8310611d8b576001810190505b80915050919050565b5f73ffffffffffffffffffffffffffffffffffffffff168273ffffffffffffffffffffffffffffffffffffffff1603611e02576040517f08c379a0000000000000000000000000000000000000000000000000000000008152600401611df990613543565b60405180910390fd5b611e0b81611951565b15611e4b576040517f08c379a0000000000000000000000000000000000000000000000000000000008152600401611e42906135ab565b60405180910390fd5b611e585f83836001611a5b565b611e6181611951565b15611ea1576040517f08c379a0000000000000000000000000000000000000000000000000000000008152600401611e98906135ab565b60405180910390fd5b600160035f8473ffffffffffffffffffffffffffffffffffffffff1673ffffffffffffffffffffffffffffffffffffffff1681526020019081526020015f205f82825401925050819055508160025f8381526020019081526020015f205f6101000a81548173ffffffffffffffffffffffffffffffffffffffff021916908373ffffffffffffffffffffffffffffffffffffffff160217905550808273ffffffffffffffffffffffffffffffffffffffff165f73ffffffffffffffffffffffffffffffffffffffff167fddf252ad1be2c89b69c2b068fc378daa952ba7f163c4a11628f55a4df523b3ef60405160405180910390a4611fa35f83836001611a61565b5050565b5f808273ffffffffffffffffffffffffffffffffffffffff163b119050919050565b5f604051905090565b5f80fd5b5f80fd5b5f7fffffffff0000000000000000000000000000000000000000000000000000000082169050919050565b61200e81611fda565b8114612018575f80fd5b50565b5f8135905061202981612005565b92915050565b5f6020828403121561204457612043611fd2565b5b5f6120518482850161201b565b91505092915050565b5f8115159050919050565b61206e8161205a565b82525050565b5f6020820190506120875f830184612065565b92915050565b5f81519050919050565b5f82825260208201905092915050565b5f5b838110156120c45780820151818401526020810190506120a9565b5f8484015250505050565b5f601f19601f8301169050919050565b5f6120e98261208d565b6120f38185612097565b93506121038185602086016120a7565b61210c816120cf565b840191505092915050565b5f6020820190508181035f83015261212f81846120df565b905092915050565b5f819050919050565b61214981612137565b8114612153575f80fd5b50565b5f8135905061216481612140565b92915050565b5f6020828403121561217f5761217e611fd2565b5b5f61218c84828501612156565b91505092915050565b5f73ffffffffffffffffffffffffffffffffffffffff82169050919050565b5f6121be82612195565b9050919050565b6121ce816121b4565b82525050565b5f6020820190506121e75f8301846121c5565b92915050565b6121f6816121b4565b8114612200575f80fd5b50565b5f81359050612211816121ed565b92915050565b5f806040838503121561222d5761222c611fd2565b5b5f61223a85828601612203565b925050602061224b85828601612156565b9150509250929050565b61225e81612137565b82525050565b5f6020820190506122775f830184612255565b92915050565b5f805f6060848603121561229457612293611fd2565b5b5f6122a186828701612203565b93505060206122b286828701612203565b92505060406122c386828701612156565b9150509250925092565b5f60ff82169050919050565b6122e2816122cd565b81146122ec575f80fd5b50565b5f813590506122fd816122d9565b92915050565b5f6020828403121561231857612317611fd2565b5b5f612325848285016122ef565b91505092915050565b5f6020828403121561234357612342611fd2565b5b5f61235084828501612203565b91505092915050565b612362816122cd565b82525050565b5f60208201905061237b5f830184612359565b92915050565b5f80fd5b5f80fd5b5f80fd5b5f8083601f8401126123a2576123a1612381565b5b8235905067ffffffffffffffff8111156123bf576123be612385565b5b6020830191508360018202830111156123db576123da612389565b5b9250929050565b5f80602083850312156123f8576123f7611fd2565b5b5f83013567ffffffffffffffff81111561241557612414611fd6565b5b6124218582860161238d565b92509250509250929050565b6124368161205a565b8114612440575f80fd5b50565b5f813590506124518161242d565b92915050565b5f806040838503121561246d5761246c611fd2565b5b5f61247a85828601612203565b925050602061248b85828601612443565b9150509250929050565b5f80fd5b7f4e487b71000000000000000000000000000000000000000000000000000000005f52604160045260245ffd5b6124cf826120cf565b810181811067ffffffffffffffff821117156124ee576124ed612499565b5b80604052505050565b5f612500611fc9565b905061250c82826124c6565b919050565b5f67ffffffffffffffff82111561252b5761252a612499565b5b612534826120cf565b9050602081019050919050565b828183375f83830152505050565b5f61256161255c84612511565b6124f7565b90508281526020810184848401111561257d5761257c612495565b5b612588848285612541565b509392505050565b5f82601f8301126125a4576125a3612381565b5b81356125b484826020860161254f565b91505092915050565b5f805f80608085870312156125d5576125d4611fd2565b5b5f6125e287828801612203565b94505060206125f387828801612203565b935050604061260487828801612156565b925050606085013567ffffffffffffffff81111561262557612624611fd6565b5b61263187828801612590565b91505092959194509250565b5f806040838503121561265357612652611fd2565b5b5f61266085828601612203565b925050602061267185828601612203565b9150509250929050565b5f602082840312156126905761268f611fd2565b5b5f61269d84828501612443565b91505092915050565b7f4e487b71000000000000000000000000000000000000000000000000000000005f52602260045260245ffd5b5f60028204905060018216806126ea57607f821691505b6020821081036126fd576126fc6126a6565b5b50919050565b7f4552433732313a20617070726f76616c20746f2063757272656e74206f776e655f8201527f7200000000000000000000000000000000000000000000000000000000000000602082015250565b5f61275d602183612097565b915061276882612703565b604082019050919050565b5f6020820190508181035f83015261278a81612751565b9050919050565b7f4552433732313a20617070726f76652063616c6c6572206973206e6f7420746f5f8201527f6b656e206f776e6572206f7220617070726f76656420666f7220616c6c000000602082015250565b5f6127eb603d83612097565b91506127f682612791565b604082019050919050565b5f6020820190508181035f830152612818816127df565b9050919050565b7f4552433732313a2063616c6c6572206973206e6f7420746f6b656e206f776e655f8201527f72206f7220617070726f76656400000000000000000000000000000000000000602082015250565b5f612879602d83612097565b91506128848261281f565b604082019050919050565b5f6020820190508181035f8301526128a68161286d565b9050919050565b5f81905092915050565b50565b5f6128c55f836128ad565b91506128d0826128b7565b5f82019050919050565b5f6128e4826128ba565b9150819050919050565b7f5769746864726177616c206661696c65640000000000000000000000000000005f82015250565b5f612922601183612097565b915061292d826128ee565b602082019050919050565b5f6020820190508181035f83015261294f81612916565b9050919050565b7f4552433732313a20696e76616c696420746f6b656e20494400000000000000005f82015250565b5f61298a601883612097565b915061299582612956565b602082019050919050565b5f6020820190508181035f8301526129b78161297e565b9050919050565b7f4d696e74696e67206973206e6f7420656e61626c6564000000000000000000005f82015250565b5f6129f2601683612097565b91506129fd826129be565b602082019050919050565b5f6020820190508181035f830152612a1f816129e6565b9050919050565b7f4e487b71000000000000000000000000000000000000000000000000000000005f52601160045260245ffd5b5f612a5d82612137565b9150612a6883612137565b9250828202612a7681612137565b91508282048414831517612a8d57612a8c612a26565b5b5092915050565b7f496e73756666696369656e74206d696e74696e672066656500000000000000005f82015250565b5f612ac8601883612097565b9150612ad382612a94565b602082019050919050565b5f6020820190508181035f830152612af581612abc565b9050919050565b5f612b0682612137565b9150612b1183612137565b9250828201905080821115612b2957612b28612a26565b5b92915050565b7f45786365656473206d617820737570706c7900000000000000000000000000005f82015250565b5f612b63601283612097565b9150612b6e82612b2f565b602082019050919050565b5f6020820190508181035f830152612b9081612b57565b9050919050565b5f612ba1826122cd565b9150612bac836122cd565b9250828201905060ff811115612bc557612bc4612a26565b5b92915050565b7f45786365656473206d6178206d696e74207065722077616c6c657400000000005f82015250565b5f612bff601b83612097565b9150612c0a82612bcb565b602082019050919050565b5f6020820190508181035f830152612c2c81612bf3565b9050919050565b5f612c3d82612137565b91507fffffffffffffffffffffffffffffffffffffffffffffffffffffffffffffffff8203612c6f57612c6e612a26565b5b600182019050919050565b5f612c84826122cd565b915060ff8203612c9757612c96612a26565b5b600182019050919050565b7f4552433732313a2061646472657373207a65726f206973206e6f7420612076615f8201527f6c6964206f776e65720000000000000000000000000000000000000000000000602082015250565b5f612cfc602983612097565b9150612d0782612ca2565b604082019050919050565b5f6020820190508181035f830152612d2981612cf0565b9050919050565b5f82905092915050565b5f819050815f5260205f209050919050565b5f6020601f8301049050919050565b5f82821b905092915050565b5f60088302612d967fffffffffffffffffffffffffffffffffffffffffffffffffffffffffffffffff82612d5b565b612da08683612d5b565b95508019841693508086168417925050509392505050565b5f819050919050565b5f612ddb612dd6612dd184612137565b612db8565b612137565b9050919050565b5f819050919050565b612df483612dc1565b612e08612e0082612de2565b848454612d67565b825550505050565b5f90565b612e1c612e10565b612e27818484612deb565b505050565b5b81811015612e4a57612e3f5f82612e14565b600181019050612e2d565b5050565b601f821115612e8f57612e6081612d3a565b612e6984612d4c565b81016020851015612e78578190505b612e8c612e8485612d4c565b830182612e2c565b50505b505050565b5f82821c905092915050565b5f612eaf5f1984600802612e94565b1980831691505092915050565b5f612ec78383612ea0565b9150826002028217905092915050565b612ee18383612d30565b67ffffffffffffffff811115612efa57612ef9612499565b5b612f0482546126d3565b612f0f828285612e4e565b5f601f831160018114612f3c575f8415612f2a578287013590505b612f348582612ebc565b865550612f9b565b601f198416612f4a86612d3a565b5f5b82811015612f7157848901358255600182019150602085019450602081019050612f4c565b86831015612f8e5784890135612f8a601f891682612ea0565b8355505b6001600288020188555050505b50505050505050565b7f546f6b656e20646f6573206e6f742065786973740000000000000000000000005f82015250565b5f612fd8601483612097565b9150612fe382612fa4565b602082019050919050565b5f6020820190508181035f83015261300581612fcc565b9050919050565b5f81905092915050565b5f8154613022816126d3565b61302c818661300c565b9450600182165f8114613046576001811461305b5761308d565b60ff198316865281151582028601935061308d565b61306485612d3a565b5f5b8381101561308557815481890152600182019150602081019050613066565b838801955050505b50505092915050565b5f6130a08261208d565b6130aa818561300c565b93506130ba8185602086016120a7565b80840191505092915050565b5f6130d18285613016565b91506130dd8284613096565b91508190509392505050565b7f4f776e61626c653a206e6577206f776e657220697320746865207a65726f20615f8201527f6464726573730000000000000000000000000000000000000000000000000000602082015250565b5f613143602683612097565b915061314e826130e9565b604082019050919050565b5f6020820190508181035f83015261317081613137565b9050919050565b7f4552433732313a207472616e736665722066726f6d20696e636f7272656374205f8201527f6f776e6572000000000000000000000000000000000000000000000000000000602082015250565b5f6131d1602583612097565b91506131dc82613177565b604082019050919050565b5f6020820190508181035f8301526131fe816131c5565b9050919050565b7f4552433732313a207472616e7366657220746f20746865207a65726f206164645f8201527f7265737300000000000000000000000000000000000000000000000000000000602082015250565b5f61325f602483612097565b915061326a82613205565b604082019050919050565b5f6020820190508181035f83015261328c81613253565b9050919050565b7f4f776e61626c653a2063616c6c6572206973206e6f7420746865206f776e65725f82015250565b5f6132c7602083612097565b91506132d282613293565b602082019050919050565b5f6020820190508181035f8301526132f4816132bb565b9050919050565b7f4552433732313a20617070726f766520746f2063616c6c6572000000000000005f82015250565b5f61332f601983612097565b915061333a826132fb565b602082019050919050565b5f6020820190508181035f83015261335c81613323565b9050919050565b7f4552433732313a207472616e7366657220746f206e6f6e2045524337323152655f8201527f63656976657220696d706c656d656e7465720000000000000000000000000000602082015250565b5f6133bd603283612097565b91506133c882613363565b604082019050919050565b5f6020820190508181035f8301526133ea816133b1565b9050919050565b7f4e487b71000000000000000000000000000000000000000000000000000000005f52601260045260245ffd5b5f81519050919050565b5f82825260208201905092915050565b5f6134428261341e565b61344c8185613428565b935061345c8185602086016120a7565b613465816120cf565b840191505092915050565b5f6080820190506134835f8301876121c5565b61349060208301866121c5565b61349d6040830185612255565b81810360608301526134af8184613438565b905095945050505050565b5f815190506134c881612005565b92915050565b5f602082840312156134e3576134e2611fd2565b5b5f6134f0848285016134ba565b91505092915050565b7f4552433732313a206d696e7420746f20746865207a65726f20616464726573735f82015250565b5f61352d602083612097565b9150613538826134f9565b602082019050919050565b5f6020820190508181035f83015261355a81613521565b9050919050565b7f4552433732313a20746f6b656e20616c7265616479206d696e746564000000005f82015250565b5f613595601c83612097565b91506135a082613561565b602082019050919050565b5f6020820190508181035f8301526135c281613589565b905091905056fea2646970667358221220615e5401e578902a85fc8692cbb4702348650d70addbd50f0236147a44f76f8464736f6c63430008150033",
  "immutableReferences": {},
  "source": "// SPDX-License-Identifier: MIT\r\n\r\npragma solidity ^0.8.7;\r\n\r\nimport '@openzeppelin/contracts/token/ERC721/ERC721.sol';\r\nimport '@openzeppelin/contracts/access/Ownable.sol';\r\n\r\ncontract MyERC721Token is ERC721, Ownable {\r\n    uint256 public mintPrice;\r\n    uint256 public totalSupply;\r\n    uint256 public maxSupply;\r\n    uint8 public maxMint;\r\n    bool public isMyERC721TokenEnabled;\r\n    string internal baseTokenUri;\r\n    mapping(address => uint8) public walletMints;\r\n\r\n    constructor() payable ERC721('MyERC721Token', 'ME7T') {\r\n        mintPrice = 0.01 ether;\r\n        totalSupply = 0;\r\n        maxSupply = 1000;\r\n        maxMint = 3;\r\n        isMyERC721TokenEnabled = true; // Varsaylan olarak mint ilemi etkin\r\n        baseTokenUri = \"https://example.com/tokens/\"; // Varsaylan token URI\r\n    }\r\n\r\n    function setIsMyERC721TokenEnabled(bool isMyERC721TokenEnabled_) external onlyOwner {\r\n        isMyERC721TokenEnabled = isMyERC721TokenEnabled_;\r\n    }\r\n\r\n    function setBaseTokenUri(string calldata newBaseTokenUri) external onlyOwner {\r\n        baseTokenUri = newBaseTokenUri;\r\n    }\r\n\r\n    function tokenURI(uint256 tokenId_) public view override returns (string memory) {\r\n        require(_exists(tokenId_), 'Token does not exist');\r\n        return string(abi.encodePacked(baseTokenUri, Strings.toString(tokenId_)));\r\n    }\r\n\r\n\r\n    function mint(uint8 quantity_) public payable {\r\n        require(isMyERC721TokenEnabled, 'Minting is not enabled');\r\n        require(msg.value == quantity_ * mintPrice, 'Insufficient minting fee');\r\n        require(totalSupply + quantity_ <= maxSupply, 'Exceeds max supply');\r\n        require(walletMints[msg.sender] + quantity_ <= maxMint, 'Exceeds max mint per wallet');\r\n\r\n        for (uint8 i = 0; i < quantity_; i++) {\r\n            uint256 newTokenId = totalSupply + 1;\r\n            totalSupply++;\r\n            _safeMint(msg.sender, newTokenId);\r\n            walletMints[msg.sender]++;\r\n        }\r\n    }\r\n\r\n    function withdraw() external onlyOwner {\r\n        (bool success, ) = msg.sender.call{value: address(this).balance}(\"\");\r\n        require(success, 'Withdrawal failed');\r\n    }\r\n}\r\n",
  "sourcePath": "C:\\Users\\Dell\\MyERCTokenMint\\contracts\\MyERC721Token.sol",
  "compiler": {
    "name": "solc",
    "version": "0.8.21+commit.d9974bed.Emscripten.clang"
  },
  "schemaVersion": "3.4.15",
  "updatedAt": "2023-08-19T08:09:09.295Z",
  "devdoc": {
    "events": {
      "Approval(address,address,uint256)": {
        "details": "Emitted when `owner` enables `approved` to manage the `tokenId` token."
      },
      "ApprovalForAll(address,address,bool)": {
        "details": "Emitted when `owner` enables or disables (`approved`) `operator` to manage all of its assets."
      },
      "Transfer(address,address,uint256)": {
        "details": "Emitted when `tokenId` token is transferred from `from` to `to`."
      }
    },
    "kind": "dev",
    "methods": {
      "approve(address,uint256)": {
        "details": "See {IERC721-approve}."
      },
      "balanceOf(address)": {
        "details": "See {IERC721-balanceOf}."
      },
      "getApproved(uint256)": {
        "details": "See {IERC721-getApproved}."
      },
      "isApprovedForAll(address,address)": {
        "details": "See {IERC721-isApprovedForAll}."
      },
      "name()": {
        "details": "See {IERC721Metadata-name}."
      },
      "owner()": {
        "details": "Returns the address of the current owner."
      },
      "ownerOf(uint256)": {
        "details": "See {IERC721-ownerOf}."
      },
      "renounceOwnership()": {
        "details": "Leaves the contract without owner. It will not be possible to call `onlyOwner` functions. Can only be called by the current owner. NOTE: Renouncing ownership will leave the contract without an owner, thereby disabling any functionality that is only available to the owner."
      },
      "safeTransferFrom(address,address,uint256)": {
        "details": "See {IERC721-safeTransferFrom}."
      },
      "safeTransferFrom(address,address,uint256,bytes)": {
        "details": "See {IERC721-safeTransferFrom}."
      },
      "setApprovalForAll(address,bool)": {
        "details": "See {IERC721-setApprovalForAll}."
      },
      "supportsInterface(bytes4)": {
        "details": "See {IERC165-supportsInterface}."
      },
      "symbol()": {
        "details": "See {IERC721Metadata-symbol}."
      },
      "transferFrom(address,address,uint256)": {
        "details": "See {IERC721-transferFrom}."
      },
      "transferOwnership(address)": {
        "details": "Transfers ownership of the contract to a new account (`newOwner`). Can only be called by the current owner."
      }
    },
    "version": 1
  },
  "userdoc": {
    "kind": "user",
    "methods": {},
    "version": 1
  }
}